:100000000C9438000C94B7000C94B7000C94B70013
:100010000C94B7000C94B7000C94B7000C94B70084
:100020000C94B7000C94B7000C94B7000C94B70074
:100030000C94B7000C94B7000C94B7000C94B70064
:100040000C94B7000C94B7000C94B7000C94B70054
:100050000C94B7000C94B7000C94B7000C94B70044
:100060000C94B7000C94B7000100010A00017C0059
:1000700011241FBECFEFD8E0DEBFCDBFE8E6F0E031
:1000800040E017C0B591A59135912591059107FDE7
:100090000CC095918591EF01F92FE82F05900D92F5
:1000A000A217B307D9F7FE0104C01D92A217B30728
:1000B000E1F7EF36F40731F70E9462000C94A200DA
:0400C000F894FFCFE2
:1000C4000E94AD00F12C0F2EFDECEF2EF02DFE9CC6
:1000D400112D1124169516951695912F990F892F88
:1000E400880F880F890F0F2D081BC4E6D0E0602FFE
:1000F400812F0E9485002197D1F7F39483E68F1511
:0601040030F7F12CE4CFFE
:10010A00E62FF0E0E050FF4F90819BB9289A29989A
:10011A00EFE1FEE43197F1F700C00000E82FF0E0CC
:10012A00E050FF4F80818BB9299A28988FE19EE48D
:0A013A000197F1F700C000000895DE
:10014400EC010E94BC000E94BB00CE010E94BD00D5
:06015400CE010E94B9007B
:10015A008FEF8AB984B1836084B91BB885B18C7F6B
:04016A0085B90895B6
:04016E000C940000ED
:040172000E94600087
:020176000895EA
:020178000895E8
:02017A000895E6
:0A017C003F065B4F666D7D077F6F45
:00000001FF
